{
  "contractName": "Splitter",
  "abi": [
    {
      "inputs": [],
      "payable": true,
      "stateMutability": "payable",
      "type": "constructor"
    },
    {
      "constant": false,
      "inputs": [
        {
          "name": "person1",
          "type": "address"
        },
        {
          "name": "person2",
          "type": "address"
        }
      ],
      "name": "split",
      "outputs": [],
      "payable": true,
      "stateMutability": "payable",
      "type": "function"
    },
    {
      "constant": false,
      "inputs": [],
      "name": "withdraw",
      "outputs": [],
      "payable": false,
      "stateMutability": "nonpayable",
      "type": "function"
    },
    {
      "constant": false,
      "inputs": [],
      "name": "killSwitch",
      "outputs": [
        {
          "name": "",
          "type": "bool"
        }
      ],
      "payable": false,
      "stateMutability": "nonpayable",
      "type": "function"
    }
  ],
  "bytecode": "0x608060405233600160006101000a81548173ffffffffffffffffffffffffffffffffffffffff021916908373ffffffffffffffffffffffffffffffffffffffff160217905550610402806100546000396000f300608060405260043610610057576000357c0100000000000000000000000000000000000000000000000000000000900463ffffffff1680630f2c93291461005c5780633ccfd60b146100b2578063ada14698146100c9575b600080fd5b6100b0600480360381019080803573ffffffffffffffffffffffffffffffffffffffff169060200190929190803573ffffffffffffffffffffffffffffffffffffffff1690602001909291905050506100f8565b005b3480156100be57600080fd5b506100c7610220565b005b3480156100d557600080fd5b506100de61033d565b604051808215151515815260200191505060405180910390f35b6000808373ffffffffffffffffffffffffffffffffffffffff1614158015610137575060008273ffffffffffffffffffffffffffffffffffffffff1614155b151561014257600080fd5b60003411151561015157600080fd5b60023481151561015d57fe5b049050600060023481151561016e57fe5b06141561017c57600061017f565b60015b60ff1681016000808573ffffffffffffffffffffffffffffffffffffffff1673ffffffffffffffffffffffffffffffffffffffff16815260200190815260200160002060008282540192505081905550806000808473ffffffffffffffffffffffffffffffffffffffff1673ffffffffffffffffffffffffffffffffffffffff16815260200190815260200160002060008282540192505081905550505050565b6000806000803373ffffffffffffffffffffffffffffffffffffffff1673ffffffffffffffffffffffffffffffffffffffff1681526020019081526020016000205411151561026e57600080fd5b6000803373ffffffffffffffffffffffffffffffffffffffff1673ffffffffffffffffffffffffffffffffffffffff16815260200190815260200160002054905060008060003373ffffffffffffffffffffffffffffffffffffffff1673ffffffffffffffffffffffffffffffffffffffff168152602001908152602001600020819055503373ffffffffffffffffffffffffffffffffffffffff166108fc829081150290604051600060405180830381858888f19350505050158015610339573d6000803e3d6000fd5b5050565b6000600160009054906101000a900473ffffffffffffffffffffffffffffffffffffffff1673ffffffffffffffffffffffffffffffffffffffff163373ffffffffffffffffffffffffffffffffffffffff1614151561039b57600080fd5b600160009054906101000a900473ffffffffffffffffffffffffffffffffffffffff1673ffffffffffffffffffffffffffffffffffffffff16ff00a165627a7a72305820810511053236ce09da5c88c7de9dd5bfcf35c3d15426b14ffd998c9cccd04b9d0029",
  "source": "pragma solidity ^0.4.23;\n\ncontract Splitter{\n\n    mapping(address => uint)balances;\n    address owner;\n\n    constructor () public payable{\n        \n        owner = msg.sender;\n    }\n\n    function split(address person1,address person2) public payable {\n\n        require(person1!=0 && person2!=0);\n        require(msg.value > 0 wei);\n\n        uint sendAmount = msg.value/2;\n\n        balances[person1] += sendAmount + ((msg.value%2 != 0)? 1 wei : 0 wei);\n        balances[person2] += sendAmount;\n\n    }\n\n    function withdraw() public {\n\n        require(balances[msg.sender] > 0);\n        uint sendAmount  = balances[msg.sender];\n\n        balances[msg.sender] = 0;\n        msg.sender.transfer(sendAmount);\n    }\n\n    function killSwitch() public returns (bool){\n\n        require(msg.sender == owner);\n        selfdestruct(owner);\n        return true;\n    }\n}",
  "sourcePath": "/home/ankush/dapps/sol/spliiter/contracts/Splitter.sol",
  "compiler": {
    "name": "solc",
    "version": "0.4.24+commit.e67f0147.Emscripten.clang"
  },
  "schemaVersion": "2.0.1",
  "updatedAt": "2018-10-18T12:51:31.051Z"
}