{
  "contractName": "Splitter",
  "abi": [
    {
      "constant": true,
      "inputs": [],
      "name": "carol",
      "outputs": [
        {
          "name": "",
          "type": "address"
        }
      ],
      "payable": false,
      "stateMutability": "view",
      "type": "function"
    },
    {
      "constant": true,
      "inputs": [],
      "name": "bob",
      "outputs": [
        {
          "name": "",
          "type": "address"
        }
      ],
      "payable": false,
      "stateMutability": "view",
      "type": "function"
    },
    {
      "constant": true,
      "inputs": [],
      "name": "alice",
      "outputs": [
        {
          "name": "",
          "type": "address"
        }
      ],
      "payable": false,
      "stateMutability": "view",
      "type": "function"
    },
    {
      "inputs": [
        {
          "name": "_alice",
          "type": "address"
        },
        {
          "name": "_bob",
          "type": "address"
        },
        {
          "name": "_carol",
          "type": "address"
        }
      ],
      "payable": true,
      "stateMutability": "payable",
      "type": "constructor"
    },
    {
      "payable": true,
      "stateMutability": "payable",
      "type": "fallback"
    },
    {
      "constant": false,
      "inputs": [
        {
          "name": "_alice",
          "type": "address"
        },
        {
          "name": "_bob",
          "type": "address"
        },
        {
          "name": "_carol",
          "type": "address"
        }
      ],
      "name": "setUsers",
      "outputs": [],
      "payable": false,
      "stateMutability": "nonpayable",
      "type": "function"
    },
    {
      "constant": false,
      "inputs": [],
      "name": "split",
      "outputs": [],
      "payable": true,
      "stateMutability": "payable",
      "type": "function"
    }
  ],
  "bytecode": "0x60806040526040516060806108ac833981018060405281019080805190602001909291908051906020019092919080519060200190929190505050826000806101000a81548173ffffffffffffffffffffffffffffffffffffffff021916908373ffffffffffffffffffffffffffffffffffffffff16021790555081600160006101000a81548173ffffffffffffffffffffffffffffffffffffffff021916908373ffffffffffffffffffffffffffffffffffffffff16021790555080600260006101000a81548173ffffffffffffffffffffffffffffffffffffffff021916908373ffffffffffffffffffffffffffffffffffffffff16021790555050505061079e8061010e6000396000f30060806040526004361061006d576000357c0100000000000000000000000000000000000000000000000000000000900463ffffffff16806361f30c1b1461006f5780638b930f15146100f2578063c09cec7714610149578063f7654176146101a0578063fb47e3a2146101aa575b005b34801561007b57600080fd5b506100f0600480360381019080803573ffffffffffffffffffffffffffffffffffffffff169060200190929190803573ffffffffffffffffffffffffffffffffffffffff169060200190929190803573ffffffffffffffffffffffffffffffffffffffff169060200190929190505050610201565b005b3480156100fe57600080fd5b506101076102c8565b604051808273ffffffffffffffffffffffffffffffffffffffff1673ffffffffffffffffffffffffffffffffffffffff16815260200191505060405180910390f35b34801561015557600080fd5b5061015e6102ee565b604051808273ffffffffffffffffffffffffffffffffffffffff1673ffffffffffffffffffffffffffffffffffffffff16815260200191505060405180910390f35b6101a8610314565b005b3480156101b657600080fd5b506101bf61074d565b604051808273ffffffffffffffffffffffffffffffffffffffff1673ffffffffffffffffffffffffffffffffffffffff16815260200191505060405180910390f35b826000806101000a81548173ffffffffffffffffffffffffffffffffffffffff021916908373ffffffffffffffffffffffffffffffffffffffff16021790555081600160006101000a81548173ffffffffffffffffffffffffffffffffffffffff021916908373ffffffffffffffffffffffffffffffffffffffff16021790555080600260006101000a81548173ffffffffffffffffffffffffffffffffffffffff021916908373ffffffffffffffffffffffffffffffffffffffff160217905550505050565b600260009054906101000a900473ffffffffffffffffffffffffffffffffffffffff1681565b600160009054906101000a900473ffffffffffffffffffffffffffffffffffffffff1681565b6000806000809054906101000a900473ffffffffffffffffffffffffffffffffffffffff1673ffffffffffffffffffffffffffffffffffffffff161415801561039657506000600160009054906101000a900473ffffffffffffffffffffffffffffffffffffffff1673ffffffffffffffffffffffffffffffffffffffff1614155b80156103db57506000600260009054906101000a900473ffffffffffffffffffffffffffffffffffffffff1673ffffffffffffffffffffffffffffffffffffffff1614155b1515610475576040517f08c379a00000000000000000000000000000000000000000000000000000000081526004018080602001828103825260398152602001807f616c6963652c626f6220616e64206361726f6c2773206163636f756e74206d7581526020017f73742062652073657420666f72207468697320616374696f6e0000000000000081525060400191505060405180910390fd5b6000809054906101000a900473ffffffffffffffffffffffffffffffffffffffff1673ffffffffffffffffffffffffffffffffffffffff163373ffffffffffffffffffffffffffffffffffffffff16141515610539576040517f08c379a000000000000000000000000000000000000000000000000000000000815260040180806020018281038252601d8152602001807f6f6e6c7920616c6963652063616e206d616b6520746869732063616c6c00000081525060200191505060405180910390fd5b6000341115156105b1576040517f08c379a000000000000000000000000000000000000000000000000000000000815260040180806020018281038252601c8152602001807f6574686572203e203020726571756972656420666f722073706c69740000000081525060200191505060405180910390fd5b6002348115156105bd57fe5b049050600160009054906101000a900473ffffffffffffffffffffffffffffffffffffffff1673ffffffffffffffffffffffffffffffffffffffff166108fc600060023481151561060a57fe5b06141580156106255750600260149054906101000a900460ff165b610630576000610633565b60015b60ff1683019081150290604051600060405180830381858888f19350505050158015610663573d6000803e3d6000fd5b50600260009054906101000a900473ffffffffffffffffffffffffffffffffffffffff1673ffffffffffffffffffffffffffffffffffffffff166108fc60006002348115156106ae57fe5b06141580156106ca5750600260149054906101000a900460ff16155b6106d55760006106d8565b60015b60ff1683019081150290604051600060405180830381858888f19350505050158015610708573d6000803e3d6000fd5b50600060023481151561071757fe5b0614151561074a57600260149054906101000a900460ff1615600260146101000a81548160ff0219169083151502179055505b50565b6000809054906101000a900473ffffffffffffffffffffffffffffffffffffffff16815600a165627a7a723058208833690924c48e8247ba27086a78ad2921b2090fc0f4f3bbf1b94859956e74de0029",
  "source": "pragma solidity ^0.4.23;\n\ncontract Splitter{\n\n\n    address public alice;\n    address public bob;\n    address public carol;\n    \n    bool turn;    //determines whose turn is it to get extra in case of odd amount \n\n    constructor (address _alice,address _bob,address _carol) public payable {\n        \n        alice = _alice;\n        bob = _bob;\n        carol = _carol;\n    }\n\n    modifier isSet(){\n\n        require(alice != 0 && bob != 0 && carol != 0,\"alice,bob and carol's account must be set for this action\");\n        _;\n    }\n\n    modifier isAlice(){\n\n        require(msg.sender == alice, \"only alice can make this call\");\n        _;\n    }\n\n    function setUsers(address _alice,address _bob,address _carol) public{\n\n        alice = _alice;\n        bob = _bob;\n        carol = _carol;\n    }\n\n    function split() public isSet isAlice payable {\n\n        require(msg.value > 0 wei, \"ether > 0 required for split\");\n\n        uint sendAmount = msg.value/2;\n\n        address(bob).transfer(sendAmount + ((msg.value%2 != 0 && turn)? 1 wei : 0 wei));\n        address(carol).transfer(sendAmount + ((msg.value%2 != 0 && !turn)? 1 wei : 0 wei));\n\n        if(msg.value%2 != 0)\n            turn = !turn;\n    }\n\n    function () public payable {}\n}",
  "sourcePath": "/home/ankush/dapps/sol/spliiter/contracts/Splitter.sol",
  "compiler": {
    "name": "solc",
    "version": "0.4.24+commit.e67f0147.Emscripten.clang"
  },
  "schemaVersion": "2.0.1",
  "updatedAt": "2018-10-18T10:06:50.637Z"
}